:10000000A03E0020B116000045CB00009D17000067
:10001000A3170000A3170000A3170000A3170000F8
:10002000000000000000000000000000A317000016
:10003000A317000000000000A3170000A317000092
:10004000A3170000A3170000A3170000A3170000C8
:10005000A3170000A3170000A3170000A3170000B8
:10006000A3170000A3170000A3170000A3170000A8
:10007000A3170000A3170000A3170000A317000098
:1007C0000348044B834202D0034B03B118477047E0
:1007D000940400209404002000000000064B074908
:1007E000C91A891048BF0131491003D0044B0BB11D
:1007F00001481847704700BF94040020940400206B
:100800000000000010B5064C237843B9FFF7D8FF6D
:10081000044B13B10448AFF300800123237010BDD3
:10082000100500200000000078F1000008B5054B1D
:100830001BB105490548AFF30080BDE80840FFF74C
:10084000CDBF00BF000000001405002078F10000BB
:10085000A3F5803A704700BF174B002B08BF134B1E
:100860009D46FFF7F5FF00218B460F461348144ABB
:10087000121A0CF09EFD0E4B002B00D098470D4B2A
:10088000002B00D098470020002104000D000D48E7
:10089000002802D00C48AFF300800CF0E9FD2000E6
:1008A000290000F0F7FC0CF095FB00BF00000800E9
:1008B0000000000000000000A03E00201005002005
:1008C00090320020000000000000000080B485B0DD
:1008D00000AFF860B9607A607B68DB43BA689A421F
:1008E00001D9002305E0BA687B681A44FB681A60E6
:1008F000012318461437BD4680BC704780B586B0CA
:1009000000AFF860B9607A60FB68002B01D100236A
:1009100016E007F114037A68B9681846FFF7D6FFA6
:10092000034683F00103DBB2002B01D0002307E074
:10093000FB68DA687B699A4201D2002300E0012358
:1009400018461837BD4680BD80B485B000AF034659
:100950003960FB710023FB600AE0134AFB681B014E
:1009600013441B78FA799A4208D0FB680133FB6084
:100970000E4B1B68FA689A42EFDB00E000BF0B4B9E
:100980001B68FA689A4202D14FF0FF3306E0FB6819
:100990001B01054A1A443B681A60002318461437A5
:1009A000BD4680BC704700BF0CDF00004CDF00007C
:1009B00080B483B000AF786000BF0C37BD4680BC08
:1009C0007047000080B58EB000AFF860B9607A6003
:1009D0003B60002387F833300023FB623A68B96834
:1009E000F868FFF78BFF034683F00103DBB2002BAF
:1009F00002D04FF0FF33CEE03B687B63FB685B685F
:100A00005B68984703467B613B7DC3F34103DBB2E0
:100A10001A46634B53F8223087F82B3097F82B3067
:100A20005B421A46BB6813407B627A6ABB689A4293
:100A300043D0FB685B685B69FA6891687A6A8818DA
:100A400007F1180101229847F862FB6A002B01DACE
:100A5000FB6AA0E0BA687B6AD21A3B681A4497F82E
:100A60002B309A4206D397F82B20796ABB68CB1AB1
:100A7000134400E03B683B62002387F8333013E007
:100A800097F83320BB681A447B6AD21A97F8333040
:100A900079680B4438323A4412F8202C1A7097F8CF
:100AA0003330013387F8333097F833303A6A9A425B
:100AB000E6D87A6B3B6AD31A7B637B6B002B01D140
:100AC000002368E097F82B307A6BB2FBF3F3FB61FD
:100AD000FB69002B22D0FB685B685B69FA68916850
:100AE000BA68114497F83320881897F8332079684A
:100AF0001144FA699847F862FB6A002B01DAFB6A35
:100B000049E097F82B30FA6902FB03F37A6BD31AAA
:100B10007B637B6B002B01D100233CE0FB685B68AF
:100B20005B69FA689168BA68114497F833201144F8
:100B300097F82B20F86900FB02F2881807F11801DA
:100B400001229847F862FB6A002B01DAFB6A22E077
:100B5000002387F8323018E097F8322097F83310E6
:100B600097F82B30F86900FB03F3194497F83230FB
:100B70000B4479680B4438323A4412F8202C1A702E
:100B800097F83230013387F8323097F832307A6B89
:100B90009A42E1D8002318463837BD4680BD00BFD1
:100BA00000DF000090B593B000AFF860B9607A60E4
:100BB0003B600023FB63BB68BB63BA68BB6BD31AA3
:100BC0007B633A68B968F868FFF798FE034683F0DC
:100BD0000103DBB2002B02D04FF0FF334DE1FB6885
:100BE0005B685B68984703467B613B7DC3F34103C9
:100BF000DBB21A468E4B53F8223087F8333007F1B8
:100C00001C027B6BB96BF868FFF7DCFE0346002B18
:100C100002D04FF0FF3330E13A687B6B1344FB6244
:100C2000FA6A3B68D21A7B6BD31ABB62FA6AB96B59
:100C3000F868FFF763FE034683F00103DBB2002B85
:100C400002D04FF0FF3318E1BA683B68D11807F1C2
:100C50001802BB6AF868FFF7B5FE0346002B02D006
:100C60004FF0FF3309E17B6B002B67D07B6B7B641C
:100C70000023FB630FE07A68FB6B1344197807F1DC
:100C80001C027B6C13440A461A707B6C01337B6434
:100C9000FB6B0133FB637B6C002B03D1FA6B3B686E
:100CA0009A42E8D3FA6B3B689A4221D100233B6415
:100CB00010E007F118023B6C1344197807F11C028D
:100CC0007B6C13440A461A707B6C01337B643B6C6B
:100CD00001333B647B6C002B03D13A6CBB6A9A42B4
:100CE000E7D33A6CBB6A9A4202D04FF0FF33C4E0BC
:100CF0007B6C012B02D04FF0FF33BEE0FB685B68DA
:100D00009C69FB689A68BB6BD01897F833301A4619
:100D10000132022A94BF01220022D2B252B2002A2A
:100D200014BF1B4600231A4607F11C031946A047AF
:100D30000346002B02DA4FF0FF339EE0FA6B3B686C
:100D40009A4280F099803A68FB6BD31A7B627B6A87
:100D5000002B19D0FB685B689B69FA689168BA68D8
:100D60001144FA6B881897F83320796AB1FBF2F2D4
:100D7000796898470346002B02DA4FF0FF337CE096
:100D8000FA6B7B6A1344FB63FB6B3B62BB6A002B11
:100D900072D000237B640FE07A68FB6B13441978F0
:100DA00007F11C027B6C13440A461A707B6C0133FA
:100DB0007B64FB6B0133FB637B6C002B03D1FA6B11
:100DC0003B689A42E8D3FA6B3B689A4202D04FF0F4
:100DD000FF3352E000233B6410E007F118023B6C44
:100DE0001344197807F11C027B6C13440A461A70ED
:100DF0007B6C01337B643B6C01333B647B6C002B6D
:100E000003D13A6CBB6A9A42E7D37A6B3B6A1344CC
:100E100001337B627B6C012B07D13A6CBB6A9A422F
:100E200003D1FA6A7B6A9A4204D04FF0FF3324E080
:100E300000DF0000FB685B689C69FB689A68BB6820
:100E40001A443B6AD01897F833301A460132022A06
:100E500094BF01220022D2B252B2002A14BF1B4614
:100E600000231A4607F11C031946A0470346002B2E
:100E700002DA4FF0FF3300E0002318464C37BD463E
:100E800090BD00BF80B588B000AFF860B9607A60EF
:100E90000023FB610023BB617A68B968F868FFF73B
:100EA0002DFD034683F00103DBB2002B02D04FF08F
:100EB000FF3327E0FB685B689B6A984778617B6932
:100EC0001B68002B1DD116E0FB685B68DB69FA68C4
:100ED0009168BA680A4410469847B861BB69002B0C
:100EE0000ED17B699B68FA691344FB617B699B683F
:100EF000BA681344BB60FA697B689A42E4D300E0A5
:100F000000BFBB6918462037BD4680BD80B584B0A0
:100F100000AF78607B685B689B6A9847F860FB6805
:100F20001B6918461037BD4680BD80B485B000AF40
:100F300078607B6813F1040F01D9052308E07B6812
:100F40000333FB60FB68042B01D9052300E0FB6839
:100F500018461437BD4680BC7047000080B582B08B
:100F600000AF0A4B1B687B6009F0B9FD03463B608C
:100F70003B68002B02D0054B1B6801E0044B1B684B
:100F80007B607B6818460837BD4680BD080400209A
:100F90003C25002080B588B000AF78603960174BE1
:100FA0001B68FB613B68002B02D1144B1B6821E0DE
:100FB0007868FFF7BAFFB861BB69042B02D90F4B01
:100FC0001B6817E007F10C031A460421B86909F001
:100FD00017FE03463B613B69002B02D0074B1B68A1
:100FE00001E0074B1B68FB61FB687B617A693B682A
:100FF0001A60FB6918462037BD4680BD08040020F2
:101000003C25002080B584B000AF786039607868F6
:10101000FFF78BFFF860FB68042B02D94FF0FF331A
:101020000BE03968F86809F0E5FEB860BB68002B92
:1010300002D04FF0FF3300E0002318461037BD46C2
:1010400080BD000080B584B002AF3B461A4608213F
:1010500002200AF0ABFBD7E900230C480C498B4275
:1010600008BF824207D10B4B00930B4B0B4A0C4934
:101070000C480CF039F93B460822002118460CF0C8
:1010800098F900BF0837BD4680BD00BFA9B454B26F
:101090006D6F90A400E0000094DF0000B4DF00005A
:1010A000E4DF0000ECDF000080B582B000AF3B461B
:1010B0001A46042107200AF079FB78607B68002B30
:1010C00001D07B6808E03B68002B02D03B68012B15
:1010D00001D1012300E0002318460837BD4680BD3A
:1010E00080B582B000AF124A20210C200AF0C0FC6B
:1010F00078607B68002B06D07B684CF25A329342B2
:1011000001D07B6810E00B4A20210D200AF0B0FCD2
:1011100078607B68002B06D07B684CF25A32934291
:1011200001D07B6800E07B6818460837BD4680BD6B
:1011300054DF000074DF000080B584B002AF3B468E
:101140001A46042107200AF031FB78607B68002BE7
:1011500001D07B6830E01A480CF0C6F8194B0093B8
:10116000194B1A4A1A491B480CF0BEF83B68002B71
:1011700021D1194A184B9A4205D018480CF0B4F8FE
:101180004AF2C53318E00AF01FFE78607B68002B36
:1011900001D07B6810E0FFF7A3FF78607B68002B2D
:1011A00001D07B6808E00AF016FE78607B68002BAF
:1011B00001D07B6800E0002318460837BD4680BD9B
:1011C00008E0000000E0000094DF00002CE00000D8
:1011D000E4DF0000ECDF0000EDFEDEC064E00000B4
:1011E00080B400AF00BFBD4680BC704780B400AF84
:1011F00000BFBD4680BC704780B400AF00BFBD4695
:1012000080BC704780B400AF00BFBD4680BC704753
:1012100080B400AF00BFBD4680BC704780B586B0CB
:1012200000AF78607B681B7907F10C021146184605
:1012300000F050F938613B69002B05D0124B134A7E
:101240004D2113480BF08AF97B681B681B6903F07A
:101250002003002B09D07B681B685B687A681268E2
:10126000128992B213447B6109E07B689A68FB683B
:1012700013447A681268128992B213447B6109F0B0
:10128000E7F9786909F0D0FBA0E00000F8E200007F
:10129000A8E0000080B586B000AF744B1B687B618E
:1012A000724B1B68FB604FF40051714803F0AEFBBA
:1012B00009F0C2F909F092FBB860BB68002B06D0B8
:1012C0006C480CF011F8BB68184609F0DBFB6A4863
:1012D0000CF00AF80AF038FA78607B68002B05D029
:1012E00066480CF001F8786809F0CCFBFFF7DCFEEB
:1012F0000346002B0BD0FFF71FFF78607B68002BA5
:1013000005D05F480BF0F0FF786809F0BBFBFFF7F2
:1013100099FE564B1B687B610123002B02D0FFF71F
:101320001DFE7861574B1B687A699A4206D0564871
:101330000BF0DAFF7B69184609F0A4FB09F06CFB9F
:10134000B860BB68002B06D050480BF0CDFFBB68DF
:10135000184609F097FB01233B6163E03B6918469F
:1013600009F0A9FB034683F00103DBB2002B55D142
:101370003B69184609F08BFBB860BB68002B07D0AF
:10138000396943480BF0B0FFBB68184609F07AFB97
:101390000C2200213F480CF00CF8344B1B687B6199
:1013A0000123002B05D03B6919463A4801F0F0FCB7
:1013B0007861344B1B687A699A421AD036480BF030
:1013C00093FF3B69184609F080FB03463B603B688E
:1013D000002B02D0254B1B6801E02A4B1B68FB60E9
:1013E000284B1B68FA689A4203D0FB68184609F03C
:1013F00049FB244B1B687A699A42C9D13B6918465C
:1014000009F04FFBB860BB68002B08D0396923484E
:101410000BF06AFFBB68184609F034FB00BF3B695C
:10142000013B3B613B69002B98DA1A4B9B681946DC
:101430001B480BF059FF174B1B681B7D1946154BBA
:101440001B685B7D1A46134B1B68DB8A9BB21548F1
:101450000BF04AFF14480BF047FF0E48FFF7DEFE83
:1014600012480BF041FF002009F00CFB080400209B
:101470002C050020F8E0000018E1000034E1000035
:1014800060E100003C2500207CE10000B4E10000A8
:10149000D8E100002C25002004E200002CE200002E
:1014A00058E200008CE20000B0E20000D8E2000048
:1014B00080B584B000AF0346B9607A60FB73FB7BF4
:1014C0007A68B968184609F022FD034618461037B5
:1014D000BD4680BD80B582B000AF03463960FB7168
:1014E000FB79002B08D0FB79002219460B480BF042
:1014F000FBFE4FF0FF330CE03B68002B05D1084B9F
:10150000084A212108480BF029F83B6800221A609C
:10151000002318460837BD4680BD00BF04E3000025
:1015200030E30000E8E300003CE3000080B483B057
:1015300000AF786039603B68022B21D03B68022BFA
:1015400020DC3B68002B03D03B68012B0CD019E05A
:101550007B68002B06D07B68012B01D1022313E0AE
:10156000FF2311E001230FE07B68002B06D07B688E
:10157000012B01D1042307E0FF2305E0032303E04F
:10158000052301E04FF0FF3318460C37BD4680BC01
:101590007047000080B582B000AF78607B68002B98
:1015A00005D1084B084A502108480AF0D7FF7B684C
:1015B0005B689B6A984703461B7D18460837BD4603
:1015C00080BD00BFB8E30000FCE300003CE3000086
:1015D00080B588B000AFF860B9607A60BB681B68FE
:1015E0007B614FF0FF33BB61FB68DBB207F1100298
:1015F00011461846FFF7A8F90346002B4CD1BB68EB
:101600001B68002B42D03B69DB68FB61BB68002292
:101610001A6026E0FB69B3F5004F08D23B69DA682F
:101620004FF40043F9681F480BF05EFE2FE0BB68E3
:101630001A68BB681B68DB0079680B44D2031A6028
:10164000BB681B68DB007A6813444FF400425A60A1
:10165000BB681B685A1CBB681A60FB69A3F5004392
:10166000FB61FB69002B04D0BB681B687A699A4256
:10167000D0D8BB681B687A699A4204D2F9680A48D4
:101680000BF032FE03E00023BB6100E000BF3B69CA
:101690001846FFF78DF900E000BFBB6918462037F8
:1016A000BD4680BD14E4000050E4000000000000CE
:1016B00080B588B000AF72B600BF314B3B603B686D
:1016C00083F3098800BF2F4B7B607B6883F30A8814
:1016D00000BF2C4BBB60BB6883F30B8800BF2A4B59
:1016E000FB60F96824A3D3E90023C1E9002300BF0C
:1016F0000BF086F9254BFB6119E00023BB610EE07E
:10170000FB691A68BB699B001A44FB695968BB698D
:101710009B000B4412681A60BB690133BB61FB6913
:101720009B68BA699A42EBD3FB690C33FB61FB6996
:10173000174A9342E1D3174B7B6114E000233B61CE
:1017400009E07B691A683B699B00134400221A6018
:101750003B6901333B617B695B683A699A42F0D32C
:101760007B6908337B617B690B4A9342E6D3FFF7C1
:1017700073F800BFAFF30080A5EDF5FEA5EDF5FE13
:10178000A03E0020A036002098040020D4DE0000F7
:10179000E0DE0000E0DE0000E8DE000080B400AF24
:1017A000FEE780B400AFFEE780B483B000AF78609E
:1017B0007B685B7818460C37BD4680BC704780B4A8
:1017C00083B000AF78607B689B6818460C37BD46D5
:1017D00080BC704780B483B000AF78607B68DB6802
:1017E00018460C37BD4680BC704780B483B000AF4C
:1017F00078607B681B6818460C37BD4680BC704714
:1018000080B483B000AF78607B685B6818460C37A3
:10181000BD4680BC704780B485B000AFF860B96049
:101820007A607B68DB43BA689A4201D9002305E0FD
:10183000BA687B681A44FB681A600123184614379B
:10184000BD4680BC704780B483B000AF786039601B
:101850007B6893F8B83019463B682C2203FB02F2F0
:10186000582301FB03F313447A68134418460C37DA
:10187000BD4680BC704780B483B000AF78603960EB
:101880007B6893F8B83018467A683B682C2103FBD4
:1018900001F1582300FB03F30B44134428331B6866
:1018A00018460C37BD4680BC704780B582B000AF8B
:1018B000786039607B6893F8B83018467A683B687E
:1018C0002C2103FB01F1582300FB03F30B441344C9
:1018D00020331B681846FFF772FF03461846083787
:1018E000BD4680BD80B584B000AFF860B9607A6055
:1018F000FB6893F8B8301846FA68BB682C2103FBE4
:1019000001F1582300FB03F30B44134424331A68FA
:101910007B68DB0013441846FFF772FF0346184646
:101920001037BD4680BD90B585B000AFF860B96096
:101930007A60FB6893F8B8301846FA68BB682C21C7
:1019400003FB01F1582300FB03F30B44134424333E
:101950001A687B68DB0013441846FFF746FF04460D
:10196000FB6893F8B8301846FA68BB682C2103FB73
:1019700001F1582300FB03F30B44134424331B6889
:101980001846FFF732FF0346E31A18461437BD46E0
:1019900090BD80B586B000AFF8600B467A60FB72F0
:1019A00000233B6123E001237B617B69012B0BD189
:1019B0003B691946F868FFF746FF02467B683969BC
:1019C000F86801F05BFA78617B69002B0CD03B6909
:1019D000002B07DDFB7A83F00103DBB2002B01D083
:1019E000002308E07B6906E03B6901333B613B690A
:1019F000012BD8DD002318461837BD4680BD0000F6
:101A0000B0B584B000AF78600B46FB707B6893F88C
:101A1000B840FB7819467868FFF715FF7B6893F8A4
:101A2000B8301D46FB787A682C2103FB01F158235E
:101A300005FB03F30B44134420331B681A4601468D
:101A4000204601F0BDFCF860FB68002B04D005487F
:101A50000BF04AFCFB6800E0002318461037BD4637
:101A6000B0BD00BF7CE4000080B584B000AF7860FA
:101A700039607B68002283F8B8207B68002283F8F5
:101A8000B82014E07B6893F8B8301A467B6813449A
:101A900093F8B93083F00103DBB2002B0DD17B68E2
:101AA00093F8B8300133DAB27B6883F8B8207B68EA
:101AB00093F8B830012BE5D900E000BF7B6893F8BC
:101AC000B830012B27D80023FB607B6893F8B8302F
:101AD00018467A68FB682C2103FB01F1582300FBB0
:101AE00003F30B44134420331B681846FFF75CFED6
:101AF00003461A463B681A71F9687868FFF7D5FE05
:101B000002463B689A60F9687868FFF79CFE0246D7
:101B10003B681A6000E000BF1037BD4680BD80B54D
:101B200084B000AF78607B68002283F8B82031E091
:101B30007B6893F8B8301A467B68134493F8B93041
:101B4000002B1ED10023FB6017E07B6893F8B830B0
:101B50001846FB68C3F101037A682C2103FB01F1ED
:101B6000582300FB03F30B44134420331B6818462F
:101B7000FEF71EFFFB680133FB60FB68012BE4D915
:101B800000E000BF7B6893F8B8300133DAB27B68BD
:101B900083F8B8207B6893F8B830012BC8D900BF10
:101BA00000BF1037BD4680BD80B483B000AF786001
:101BB00039607B681A783B681B789A4201D9012307
:101BC0002FE07B681A783B681B789A4202D24FF06C
:101BD000FF3326E07B685A783B685B789A4201D9EC
:101BE00001231EE07B685A783B685B789A4202D2F8
:101BF0004FF0FF3315E07B685B889AB23B685B88E7
:101C00009BB29A4201D901230BE07B685B889AB2B0
:101C10003B685B889BB29A4202D24FF0FF3300E0F0
:101C2000002318460C37BD4680BC704780B586B08F
:101C300000AF786039603B681B781A467B681344B4
:101C400093F8B030FB74FB7C022B05D0FB7C042B9B
:101C500002D0FB7C032B01D1012300E00023FB60B9
:101C60003B681B781946FB682C2203FB02F25823C1
:101C700001FB03F3134410337A6813440433BB604D
:101C80003B6804331946B868FFF78EFF78617B69BB
:101C9000002B22DA7B6893F8B8301A467B6813442D
:101CA00093F8B030012B0ED0002B19DD023B012B35
:101CB00016D87B6893F8B8301A467B681344012223
:101CC00083F8B0200DE07B6893F8B8301A467B6843
:101CD0001344042283F8B02003E000237B6100E07A
:101CE00000BF7B6918461837BD4680BD80B586B0F9
:101CF00000AF78604FF0FF337B617B68002283F890
:101D0000B82055E07B6893F8B8301A467B681344D6
:101D100093F8B930002B08D07B6893F8B8300133C2
:101D2000DAB27B6883F8B82042E07B6893F8B83079
:101D30001A467B68134493F8B030012B0CD07B68B3
:101D400093F8B8301A467B68134493F8B030052BEB
:101D500002D00123FB7401E00023FB74FB7C1946D5
:101D6000786800F02FF878617B69002B08D17B68D8
:101D700093F8B8300133DAB27B6883F8B82017E003
:101D80000023FB6010E0FB68DAB27B6883F8B820C0
:101D90007B6893F8B8301A467B681344012283F8B5
:101DA000B020FB680133FB60FB68012BEBDD04E036
:101DB0007B6893F8B830012BA4D97B691846183793
:101DC000BD4680BD80B592B002AF786039607B6857
:101DD00093F8B8301A463B6819461046FFF7A6FB41
:101DE000B863BB6BDBB207F1340211461846FEF74D
:101DF000ABFDF863FB6B002B02D00123FB634EE0CD
:101E000039687868FFF71FFD01467A6B07F11C00FF
:101E100001230093402301F0FFF8F863FB6B002BD4
:101E20003AD107F10A0207F10C0107F11C00002367
:101E300001F072F9F863FB6B002B02DA4FF0FF330D
:101E400032E0FB6B002B02DD0023FB6327E07B8984
:101E50000C2B02D00323FB6321E0786BF9687B89AC
:101E600007F11002FEF7AEFDF863FB6B002B02D00A
:101E70000123FB6313E03B7C012B02D90723FB63A7
:101E80000DE007F1100319467868FFF7CFFEF863FD
:101E9000FB6B002B02D1C4E700BF00E000BF7B6BEF
:101EA0001846FEF785FDFB6B18464037BD4680BDE2
:101EB00080B584B000AF78607B6893F8B83019467D
:101EC0007A68582301FB03F3134420331B68184638
:101ED000FFF71CF8F860FB6818461037BD4680BD58
:101EE00080B586B000AF786039600823BB600823F6
:101EF000BB607B6893F8B830002B08D07B6893F800
:101F0000B830012B01D1022302E0FF2300E00123BE
:101F10003A68934217D17B6893F8B83019467A68CB
:101F2000582301FB03F3134424331B687B617B6854
:101F300093F8B8301A46582302FB03F328337A6823
:101F400013443B612BE07B6893F8B830002B08D03A
:101F50007B6893F8B830012B01D1042302E0FF2302
:101F600000E003233A68934217D17B6893F8B830B6
:101F700019467A68582301FB03F3134450331B6856
:101F80007B617B6893F8B8301A46582302FB03F351
:101F900054337A6813443B6101E0012310E007F1F8
:101FA00008037A6919463868FFF712FBF860FB6886
:101FB000002B01D0FB6803E0BA683B691A6000237C
:101FC00018461837BD4680BD80B584B000AF786034
:101FD0007B6893F8B830FB73FB7B002B06D0FB7B50
:101FE000012B01D1022302E0FF2300E00123194667
:101FF0007868FFF775FFB860BB68002B01D001233C
:102000001CE0FB7B002B06D0FB7B012B01D10423C2
:1020100002E0FF2300E0032319467868FFF760FF22
:10202000B860BB68002B01D0092307E07868FFF790
:102030003FFF02467B68C3F8B420002318461037E0
:10204000BD4680BD80B483B000AF78607B6800225D
:102050009A717B6800229A607B680022DA607B6854
:1020600001225A717B6801221A607B6801221A7171
:102070007B680122DA7100BF0C37BD4680BC704717
:1020800080B483B000AF78607B685B79012B09D1A5
:102090007B681B68012B05D17B681B79012B01D163
:1020A000012300E0002303F00103DBB218460C37E4
:1020B000BD4680BC7047000080B58CB006AFF860AC
:1020C000B9607A603B60124B1B687B61FB6893F8D8
:1020D000B830FB740E4B1B687B610123002B11D0C1
:1020E000F97C0023049300230393002302934FF40D
:1020F00080730193074B00937B68BA68002001F05E
:1021000027FE78617B6918461837BD4680BD00BF41
:1021100008040020FC25002080B584B000AF786062
:1021200039607B681B68134A934201D000231CE08E
:102130007B68D9687B681B899BB21A4607F10C0340
:102140001846FFF768FB034683F00103DBB2002B60
:1021500001D0002309E03868FFF73CFB0246FB682A
:102160009A4201D8002300E0012318461037BD46EB
:1021700080BD00BF3DB8F39680B487B000AF034682
:10218000B9607A60FB73BB683B610023FB750BE0B1
:10219000FB7D3A6913441B78FA7B9A4201D00023F5
:1021A00007E0FB7D0133FB75FB7D7A689A42EFD82F
:1021B000012318461C37BD4680BC704780B588B0E7
:1021C00000AF786039607B6893F8B830396818469A
:1021D000FFF7ACF9F861FB69DBB207F10C021146BD
:1021E0001846FEF7B1FBB861BB69002B02D04FF077
:1021F000FF331FE0FB681846FFF7CCF90346FB7579
:10220000FB681846FEF7D4FB3B6819467868FFF771
:102210001AFB38613969FB7D04221846FFF7ACFFD1
:10222000034683F00103DBB2002B02D04FF0FF33F3
:1022300000E0002318462037BD4680BD90B58BB026
:1022400000AFF860B9607A603D4B1B687B62FB6849
:1022500093F8B830B9681846FFF768F938623B6AF6
:10226000DBB207F1140211461846FEF76DFBF86168
:10227000FB69002B01D07B6A5DE0BB681946F868FA
:10228000FFF7E1FAB861B968F868FFF797FF03460E
:10229000002B05D0BB691B6903F01003002B03D092
:1022A000284B1B687B6241E0274B1B687B62264BF7
:1022B0001B687A6A9A420CD1214B1B687B6201230E
:1022C000002B06D07A697B68B969F868FFF7F4FEDD
:1022D00078627B691946B869FFF71EFF034683F0F1
:1022E0000103DBB2002B04D1184B1B687A6A9A42B7
:1022F0001BD0BB68002B0AD07C697B691846FFF7AE
:1023000069FA03461A4600212046FEF7BBFDBB686A
:10231000002B01D10E4B00E00E4B19460E480AF07F
:10232000E3FF084B1B687B6200E000BF7B69184637
:10233000FEF73EFB7B6A18462C37BD4690BD00BFBA
:10234000080400200C040020100400203C2500207C
:10235000ACE40000B4E40000C0E4000080B588B044
:1023600000AF0346B9607A60FB730023BB61FB7B5F
:10237000B9681846FFF7DAF80346DBB207F118022E
:1023800011461846FEF7E0FAF861FB69002B02D00F
:102390000123FB6115E0BB6907F114021946786857
:1023A00001F088FCF861FB69002B09D1FB7B7A699D
:1023B00011461846FEF726FEF861FB69002B00E087
:1023C00000BFBB691846FEF7F3FAFB6918462037D1
:1023D000BD4680BD80B584B000AF78603960194BD0
:1023E0001B68BB607B6893F8B830184601F06CFA44
:1023F000F860FB68022B05D0FB68042B02D0FB6859
:10240000032B1AD10F4B1B68BB600123002B05D097
:102410003A6801217868FFF711FFB8600A4B1B6822
:10242000BA689A4209D0094B1B68BA689A4202D12D
:102430000123FB6001E00523FB60FB6818461037B1
:10244000BD4680BD080400203C2500200C0400206F
:1024500080B584B000AFF860B9607A607A68B96816
:10246000F868FEF70FFD034618461037BD4680BDDD
:1024700080B588B000AFF860B9607A603B60002337
:10248000FB612DE0FA6AFB69D31AB3F5806F03D9BB
:102490004FF48063BB6103E0FA6AFB69D31ABB6146
:1024A0003A68FB69D118BB69124AB868FEF78AFA24
:1024B00078617B69002B01D0012316E0BA6AFB69C1
:1024C000D118BB690B4A7868FEF76CFB78617B69B1
:1024D000002B01D0012308E0BB69FA691344FB61BA
:1024E000FA69FB6A9A42CDD3002318462037BD46CD
:1024F00080BD00BFFC260020B0B58EB002AF786072
:1025000039607B6893F8B83087F8273097F8273020
:10251000194678480AF0E8FE77480AF0E5FE97F891
:102520002730002B07D097F82730012B01D1022349
:1025300002E0FF2300E0012307F1100211461846D4
:10254000FEF702FA38623B6A002B06D06B4B6C4AEE
:1025500040F257516B480AF001F897F82730002BEA
:1025600007D097F82730012B01D1042302E0FF2385
:1025700000E0032307F10C0211461846FEF7E4F9C8
:1025800038623B6A002B06D05C4B5D4A40F25B51DF
:102590005C4809F0E3FF00217868FFF76CF9F86107
:1025A0000023FB620023BB621DE0FA6A0021786809
:1025B000FFF798F978613B697A69B96A1846FFF7BD
:1025C00047FF38623B6A002B06D04C4B4C4A40F226
:1025D00061514C4809F0C2FFBA6A7B691344BB627F
:1025E000FB6A0133FB62FA6AFB699A42DDD397F812
:1025F0002730BA6A194644480AF076FEF9683A6903
:10260000BB6A01930023009300237868FFF730FF33
:1026100038623B6A002B01D03B6A66E000233B62D4
:102620003B6A002B01D03B6A5FE07B6893F8B840BF
:1026300001217868FFF707F903461A460021204672
:10264000FFF78CFE38623B6A002B04D02F480AF05B
:102650004BFE3B6A49E0FC68002201217868FFF7E5
:1026600062F90546002201217868FFF73BF903462D
:102670001A4629462046FFF7EBFE38623B6A002BDC
:1026800006D01E4B1E4A40F2B7511E4809F066FFA5
:1026900001217868FFF7EFF80346013BBB61FC6856
:1026A000BA6901217868FFF73EF90546BA69012148
:1026B0007868FFF717F903461A4629462046FFF7C0
:1026C000C7FE38623B6A002B06D00C4B0C4A40F226
:1026D000C1510C4809F042FF3B691846FEF768F902
:1026E000FB681846FEF764F9002318463037BD46EC
:1026F000B0BD00BFECE4000024E5000048E50000A8
:1027000070E7000050E50000C8E5000018E6000092
:1027100080B584B000AF7860396039687868FFF7B9
:10272000EBFEF860FB68002B06D0064B064A4FF420
:10273000CF61064809F012FFFB6818461037BD4606
:1027400080BD00BF48E5000080E7000050E50000C4
:1027500080B485B000AF78600B46FB707B6893F85F
:10276000B830002B33D0FB7883F00103DBB2002BB1
:1027700013D07B6893F8B8301A467B68134493F8FB
:10278000B030012B25D07B6893F8B8301A467B68AF
:10279000134493F8B030042B1BD00023FB730FE0DD
:1027A000FB7B7A68134493F8B030042B05D1FB7B94
:1027B0007A681344012283F8B020FB7B0133FB735A
:1027C0007B6893F8B830FA7B9A42E9D302E000BF05
:1027D00000E000BF1437BD4680BC704780B584B0B0
:1027E00000AF786039604E4B1B68FB607868FFF77C
:1027F000EBFBB860BB68002B0FD0082149480AF0FA
:1028000073FD7B6893F8B8301A467B681344012245
:1028100083F8B020BB68012B7DD0002200217868AE
:10282000FFF7B7F8B860BB68002B10D07B6893F84F
:10283000B83019463C480AF057FD7B6893F8B83029
:102840001A467B681344012283F8B02064E078685C
:1028500000F046FB0346002B53D03868FFF7F2FB2D
:102860003868FFF70DFC034683F00103DBB2002B51
:102870000AD001217868FFF76BFF2C4B2C4A40F2FD
:1028800076712C4809F06AFE3B68DB79012B0ED18A
:1028900039687868FFF79EFD02467B6893F8B83088
:1028A0001946D2B27B680B4483F8B02024E01C4B5D
:1028B0001B68FB600123002B05D03A680121786872
:1028C000FFF7BCFCF8601C4B1B68FA689A4209D001
:1028D0007B6893F8B8301A467B681344052283F866
:1028E000B02009E07B6893F8B83019463B68DA7984
:1028F0007B680B4483F8B02000217868FFF728FF3D
:102900000AE07B6893F8B8301A467B6813440122CA
:1029100083F8B02000E000BF1037BD4680BD00BF87
:102920000804002054E600009CE60000CCE600000D
:1029300094E7000050E500003C25002090B585B0EC
:1029400000AF78607B6893F8B8301A467B68134410
:1029500093F8B030012B15D17B6893F8B840002173
:102960007868FEF770FF03461A4600212046FFF7FD
:10297000F5FCF860FB68002B04D005480AF0B4FCB5
:10298000FB6800E0002318461437BD4690BD00BF29
:10299000D0E6000080B483B000AF78600023184612
:1029A0000C37BD4680BC704780B590B002AF7860F0
:1029B00039604FF0FF333B63AD4B1B68FB62002374
:1029C00087F82B307B68002283F8B8209AE07B6878
:1029D00093F8B8301A467B68134493F8B930002B4B
:1029E00040F087807B6893F8B8307B627B6893F80F
:1029F000B83018467B6A9B019E4A1A44796858236E
:102A000000FB03F30B4424331A607B6893F8B8305F
:102A100018467B6A9B01984A1A447968582300FB40
:102A200003F30B4450331A6000237B6336E07B6B67
:102A30001946786AFEF77AFD38623B6AD8B27B683D
:102A400093F8B83019467B6B2C2203FB02F2582313
:102A500001FB03F3134420337A6813441946FDF74E
:102A600073FF38633B6B002B06D0844B844A40F6DF
:102A70005D01844809F072FD3B6B002B0BD07B6B32
:102A80005BB21A463B6B009313467A6A396A7E48FA
:102A90000AF02AFCFEE77B6B01337B637B6B012B27
:102AA000C5D907F1100319467868FFF797FE7B68D0
:102AB00093F8B8301A467B68134493F8B030022B71
:102AC00013D07B6893F8B8301A467B68134493F8A8
:102AD000B030042B09D07B6893F8B8301A467B6875
:102AE000134493F8B030032B04D1012387F82B3023
:102AF00000E000BF7B6893F8B8300133DAB27B683E
:102B000083F8B8207B6893F8B830012B7FF65FAF6D
:102B100097F82B30002B08D07868FFF7E7F8386378
:102B20003B6B002B01D000233B637B68002283F8C2
:102B3000B8207FE07B6893F8B8301A467B6813446E
:102B400093F8B930002B6CD107F110031846FFF74A
:102B500079FA7B6893F8B8301A467B68134493F887
:102B6000B030FB757B6893F8B8301A467B68134425
:102B700093F8B030013B042B32D801A252F823F075
:102B8000F52B0000952B0000952B0000B52B0000C5
:102B9000F52B00007868FFF7FDFE0346002B09D0F7
:102BA0007B6893F8B8301A467B681344012283F897
:102BB000B02022E001233B633B6B012B06D107F1E0
:102BC000100319467868FFF7A3FD38633B6B002BB1
:102BD00012D02A4B2A4A40F6BB012A4809F0BEFC13
:102BE0007B6893F8B8301A467B681344FF2283F859
:102BF000B02002E000BF00E000BF7B6893F8B8306F
:102C00001A467B68134493F8B030FF2B0AD11F4853
:102C10000AF06AFB1E4B1A4A40F6D201194809F025
:102C20009DFC00BF7B6893F8B8300133DAB27B6853
:102C300083F8B8207B6893F8B830012B7FF67AAF21
:102C40000023FB607B68002283F8B8207AE07B6871
:102C500093F8B8301A467B68134493F8B930FB7286
:102C6000FB7ADBB2002B15D0FB680133FB6061E01F
:102C700008040020FC2A00207C2B002048E50000EE
:102C8000B4E7000050E5000010E7000060E7000036
:102C9000CCE600007B6893F8B8301A467B68134492
:102CA00093F8B030012B0CD0002200217868FEF799
:102CB00070FE38633B6B002B03D0324B1B68FB620A
:102CC00051E0304B1B68FB620123002B05D0002232
:102CD00000217868FFF7B2FAF8622B4B1B68FA6A9A
:102CE0009A4209D1274B1B68FA6A9A4204D0274BB3
:102CF0001B68FA6A9A4203D1224B1B68FB6232E0DE
:102D00007868FFF71BFE38633B6B002B03D01D4B2D
:102D10001B68FB6227E000217868FEF771FE3863CC
:102D20003B6B002B03D0174B1B68FB621BE0FB685F
:102D30000133FB607B6893F8B8300133DAB27B680B
:102D400083F8B8207B6893F8B830012B7FF67FAF0B
:102D5000FB68022B00D0FEE739687868FEF784FE36
:102D6000094B1B68FB6207F1100310220021184673
:102D70000AF01FFB7868FEF7D2FEFB6A1846383768
:102D8000BD4680BD080400203C2500200C04002026
:102D900080B584B000AF78603960124B1B68FB606F
:102DA0003B68012B02D90F4B1B6816E00222012160
:102DB0000D480AF0FEFA0D4A3B681344B93300226D
:102DC0001A70084B1B68FB600123002B04D0796844
:102DD0000648FFF7E9FDF860FB6818461037BD4666
:102DE00080BD00BF08040020F925002040250020F8
:102DF00080B483B000AF78607B685B6818460C379E
:102E0000BD4680BC704780B483B000AF7860396045
:102E10007B6893F8B83018467A683B682C2103FB2E
:102E200001F1582300FB03F30B44134428331B68C0
:102E300018460C37BD4680BC704780B584B000AFE3
:102E4000F860B9607A60FB6893F8B8301846FA68A1
:102E5000BB682C2103FB01F1582300FB03F30B4457
:102E6000134424331A687B68DB0013441846FFF7C9
:102E7000BFFF034618461037BD4680BD80B588B0F9
:102E800000AFF860B9607A603B600023FB61FB68CB
:102E900093F8B830B9681846FEF748FBB861BB69CB
:102EA000DBB207F1140211461846FDF74DFDF8613B
:102EB000FB69002B0AD1786920237A680021FDF78D
:102EC00081FDF8617B691846FDF772FDFB69002BF7
:102ED00001D00123FB61FB6918462037BD4680BD48
:102EE00080B58CB000AF786000217868FFF78BFF69
:102EF000B86101217868FFF786FF7861BB69082B0C
:102F000002D87B69082B04D940480AF0EDF9002368
:102F100078E000233B613B69FB62FB6A7B62002334
:102F2000FB60FB68BB62BB6A3B620023FB774FE040
:102F3000FA6ABB6A9A4218D17A6A00217868FFF768
:102F40007CFF0246FB6A1344FB623A6A01217868FF
:102F5000FFF773FF0246BB6A1344BB627B6A01330F
:102F60007B623B6A01333B6232E0FA6ABB6A9A4297
:102F700017D27A6A00217868FFF75FFF0246FB6A82
:102F80001344FB6297F91F30022B04D120480AF04A
:102F9000ABF9002336E00123FB777B6A01337B62C8
:102FA00016E03A6A01217868FFF747FF0246BB6ADC
:102FB0001344BB6297F91F30012B04D114480AF067
:102FC00093F900231EE00223FB773B6A01333B6247
:102FD0007A6ABB699A42ABD33A6A7B699A42A7D3B1
:102FE0007A6ABB699A4207D13A6A7B699A4203D1ED
:102FF0003A69FB689A4204D006480AF075F9002342
:1030000000E0012318463037BD4680BDECE70000E4
:1030100020E800005CE8000080B586B000AFF860F2
:10302000B9607A607B80FB68002B05D0BB68002B01
:1030300002D07B68002B02D14FF0FF3368E0BB6801
:103040001B899BB21A46BB68DB6813447B6107F19E
:103050001002042379697868FDF7B4FC0346002B5D
:1030600002D04FF0FF3353E03B8A46F608129342FA
:1030700018D1BB685B899AB27B8A9A4202D04FF022
:10308000FF3345E07B8A1A467B69D11807F11002AD
:1030900004237868FDF796FC0346002B0AD04FF016
:1030A000FF3335E0BB685B899BB2002B02D04FF049
:1030B000FF332DE03B8A46F60712934202D04FF0D1
:1030C000FF3325E0FB68BA681A60FB687A685A60CB
:1030D000FB687A881A81FB6897F820209A72FB684F
:1030E0001B685B899BB21A467B691A44FB68DA60ED
:1030F000FB681B685B899BB21A467B6913447A8A1A
:103100001A44FB685A617B691A1DFB681A61002327
:1031100018461837BD4680BD80B586B000AFF86050
:10312000B9607A603B60FB68002B07D0FB681B68C6
:10313000002B03D0FB685B68002B58D14FF0FF33A6
:103140005CE0FB681B685B899BB2002B0AD0FB68C4
:103150001A69FB68DB689A4204D1FB681B691A1D77
:10316000FB681A61FB685868FB68196907F110026F
:103170000423FDF727FC78617B69002B02D04FF018
:10318000FF333BE0FB689B7A002B07D0FB681A6992
:10319000FB68DB689A4201D301232FE0FB681B899F
:1031A0004FF6FF72934204D03A8AFB681B899A4219
:1031B00016D13B68002B02D03A8A3B681A80FB6824
:1031C0001B691A1DBB681A607A8A7B681A80FB68C3
:1031D0001B697A8A13441A1DFB681A6100230DE0EB
:1031E000FB681B697A8A13441A1DFB681A61FB6825
:1031F0001A69FB685B699A42A3D301231846183702
:10320000BD4680BD80B483B000AF786039607B6814
:10321000002B07D07B681B68002B03D07B685B68A2
:10322000002B02D14FF0FF3307E07B68DB683A6880
:103230009A4234BF01230023DBB218460C37BD4647
:1032400080BC704780B485B000AF78600B467B804F
:1032500013463B807A883B881344FB60FB68B3F5D8
:10326000803F01D3002304E0FB689AB27B681A8098
:10327000012318461437BD4680BC704780B58AB01C
:1032800000AFBA607B600346FB730B46BB81002333
:10329000BB617B68002B01D1032388E04FF0005312
:1032A0003B62454B1B7883F00103DBB2002B10D04F
:1032B0004FF4807200214FF000500AF07AF83B6A18
:1032C00042F216021A803B6A04225A803A4B0122CB
:1032D0001A703B6A5B8803F10053FB61374B7B62DA
:1032E0001BE0796A07F11803042218460AF0E7F890
:1032F0003B8B1B0B9AB2FB7B9BB29A4207D13B8B59
:10330000C3F30B02BB899A4201D102234FE07B8BAE
:103310001A467B6A134404337B627A6AFB699A42D9
:10332000DFD3FB7B1BB21B031AB2B7F90C30C3F31C
:103330000B031BB213431BB29BB23B83BB689BB214
:103340007B833B6A5988BB689BB204339AB207F10E
:1033500016031846FFF776FF034683F00103DBB23E
:10336000002B01D0032322E0FB8AB3F5807F01D933
:1033700001231CE0FB697B627B6A07F118010422D0
:1033800018460AF09CF87B6A04337B627B6ABA6851
:10339000796818460AF093F83B6A5A88BB689BB272
:1033A00013449BB204339AB23B6A5A8000231846F6
:1033B0002837BD4680BD00BFFC2B00200400002044
:1033C00080B5BCB002AF0346B9607A60FB730023DE
:1033D000C7F8E430002387F8E330002387F8E230B1
:1033E00007F1C000002300934FF6FF737A68B968B5
:1033F000FFF712FEC7F8DC00D7F8DC30002B02D054
:103400004FF0FF33A1E007F1B80307F1BA0207F16B
:10341000BC0107F1C000FFF77FFEC7F8DC00D7F85A
:10342000DC30002B02DA4FF0FF338EE0D7F8DC30CF
:10343000002B45DCB7F8B830602B20D1B7F8BA3094
:10344000842B02D94FF0FF337FE0D7F8BC10B7F8D8
:10345000BA3007F114027868FDF7B4FAC7F8DC0057
:10346000D7F8DC30002B02D04FF0FF336DE0B7F817
:10347000BA30C7F8E430012387F8E330C3E7B7F880
:10348000B830102BBFD1B7F8BA30202B02D94FF08B
:10349000FF335AE0D7F8BC10B7F8BA3007F19802FA
:1034A0007868FDF78FFAC7F8DC00D7F8DC30002B1E
:1034B00002D04FF0FF3348E0012387F8E23000E00C
:1034C00000BF97F8E33083F00103DBB2002B06D195
:1034D00097F8E23083F00103DBB2002B02D04FF00B
:1034E000FF3332E0D7F8E4301F2B02D84FF0FF3320
:1034F0002BE0D7F8E430203BC7F8BC30D7F8BC301D
:1035000007F11402134407F198012022184609F02C
:10351000D6FFFB7B1BB29B011BB243F03F031BB2E8
:10352000A7F8DA3007F11403B7F8DA10D7F8E42077
:103530000120FFF7A3FEC7F8DC00D7F8DC30002B32
:1035400002D0D7F8DC3000E000231846E837BD464B
:1035500080BD80B584B000AFF860B9607A607A68E9
:10356000B968F86809F015FF034618461037BD46DC
:1035700080BD80B582B000AF7860786800F05FF8F9
:10358000034618460837BD4680BD80B483B000AFFF
:1035900078607B68DB6818460C37BD4680BC704796
:1035A00080B582B000AF786010220749786809F0D2
:1035B000F0FE0346002B01D1012300E00223184650
:1035C0000837BD4680BD00BFE4E9000080B582B089
:1035D00000AF78607868FFF7D8FF0346103B1846C5
:1035E0000837BD4680BD80B582B000AF786078688E
:1035F000FFF7ECFF0346103B23F00F031846083794
:10360000BD4680BD80B582B000AF78607868FFF7B6
:10361000EAFF0346103B18460837BD4680BD80B41C
:1036200083B000AF0346FB71FB79012B01D002236D
:1036300000E0012318460C37BD4680BC704780B5BA
:1036400082B000AF78607868FFF7DCFF0346103B7C
:1036500018460837BD4680BD80B483B000AF03462E
:103660000A46FB711346BB71FB79042B02D0052B74
:1036700002D008E001230DE0BB79012B14BF012328
:103680000023DBB206E0FA79BB799A420CBF012332
:103690000023DBB218460C37BD4680BC704780B5AE
:1036A00088B000AFF860B9607A60BB68002B02D0C8
:1036B0007B68002B01D100231AE0F868FDF76AFF50
:1036C0000346FB760023FB61BB687B610BE07A69F4
:1036D000FB6913441B78FA7E9A4201D0002307E06D
:1036E000FB690133FB61FA697B689A42EFD30123DE
:1036F00018462037BD4680BD80B586B000AFF86063
:10370000B9607A600123BA687968F868FDF75AF9F8
:1037100078617B69002B01DA012315E00122B96889
:10372000F868FFF7BCFF0346002B03D0BB680322F9
:103730001A7008E0BB681B781846FFF770FF034655
:10374000DAB2BB681A70002318461837BD4680BD30
:1037500080B582B000AF786039607868FFF752FFBB
:1037600003461A4639687868FFF7C6FF03461846CD
:103770000837BD4680BD80B58AB000AF786039603B
:103780007868FFF723FF786207F110021023796A47
:103790007868FDF717F938623B6A002B01DA0123DC
:1037A00059E007F11003102219467868FFF777FFF8
:1037B0000346002B03D03B6803221A7008E007F190
:1037C00010031846FFF7ECFE0346DAB23B681A70A6
:1037D0007868FFF734FF786207F10F020123796AF6
:1037E0007868FDF7EFF838623B6A002B01DA0123B5
:1037F00031E0FB7B03F00F03DAB23B685A70FB7BCE
:103800001B09DAB23B681A7107F10F03012219464E
:103810007868FFF744FF0346002B03D13B685B78D1
:10382000042B05D93B6801225A703B6800221A71AB
:103830003B68023319467868FFF78AFF38623B6AB3
:10384000002B01D0012306E03B680333194678685A
:1038500000F027F8034618462837BD4680BD80B5DE
:1038600084B000AF786039607B68DBB207F1080292
:1038700011461846FDF768F8F860FB68002B01D088
:1038800001230AE0BB6839681846FFF774FFF86047
:10389000BB681846FDF78CF8FB6818461037BD4624
:1038A00080BD80B582B000AF786039607868FFF77E
:1038B0009AFE03461A4639687868FFF71DFF0346EB
:1038C00018460837BD4680BD80B58AB000AF786025
:1038D00001237B627B6A012B11D17B68002B06D010
:1038E0007B68012B01D1022302E0FF2300E00123CA
:1038F00007F1140211461846FFF7B1FF78627B6AA0
:10390000002B01D0FF2397E07B68002B06D07B685B
:10391000012B01D1042302E0FF2300E0032307F180
:103920000C0211461846FFF79AFF78627B6A012B5A
:103930000ED17968424809F0D7FC03233B73012379
:103940007B730323BB730323FB7300233B7404E0EB
:103950007B6A002B01D0FF236EE000233B6263E013
:103960003A6A13465B0013445B001A46354B134416
:10397000FB61FB691B783A7D11461846FFF76CFE28
:103980000346002B4DD0FB695B783A7B1146184605
:10399000FFF762FE0346002B43D0FB699B78042BA4
:1039A00004D0FB699A78FB7D9A423AD1FB69DB78B7
:1039B000042B04D0FB69DA78FB7B9A4231D1FB6996
:1039C0001B79042B04D0FB691A79BB7D9A4228D15C
:1039D000FB695B79022B0DD0FB695B79032B07D068
:1039E000FB695B79042B01D1174B04E0174B02E014
:1039F000174B00E0174B1A467968174809F074FC1A
:103A0000FB695B79022B09D0FB695B79032B05D03D
:103A1000FB695B79042B01D0FF230DE0FB695B7927
:103A20000AE03B6A01333B623B6A022B98D9796812
:103A30000A4809F059FC012318462837BD4680BDC5
:103A4000B0EA0000F4E9000000EB000008EB000021
:103A50001CEB000024EB00002CEB000054EB0000FA
:103A600080B582B000AF7860786801F001F800217D
:103A7000786801F01BF8034618460837BD4680BD3C
:103A800080B483B000AF7860002318460C37BD4681
:103A900080BC704780B584B000AFF860B9607A60D0
:103AA0007A68B968F86803F01AF8034618461037C0
:103AB000BD4680BD80B582B000AF7860396039689E
:103AC000786803F083F8034618460837BD4680BD82
:103AD00080B5A4B000AFF860B9607A603B6007F1D0
:103AE00010031846FFF7BCFFD7F8A430002B0CD00A
:103AF000D7F8A830002B08DDD7F8A82007F110036D
:103B0000D7F8A4101846FFF7C5FF7B681A7A5B7ACE
:103B10001B021343A7F88630B7F88630C7F8803009
:103B20007B68DB68D7F880201344C7F88030D7F86B
:103B30008030FB677B685B899BB21A46D7F8803080
:103B40001344C7F880300023C7F8883034E0D7F832
:103B50008020D7F88830D31AC7F88C30D7F88C205B
:103B6000D7F89C309A4203D9D7F89C30C7F88C30EC
:103B7000D7F88C30D7F89820D7F888103868FCF739
:103B800021FFB867BB6F002B06D007F11003184662
:103B9000FFF776FFBB6F22E007F11003D7F88C2008
:103BA000D7F898101846FFF775FFD7F88820D7F890
:103BB0008C301344C7F88830D7F88820D7F8803085
:103BC0009A42C4D307F11003D7F8A0101846FFF7A4
:103BD00071FF07F110031846FFF752FF0023184644
:103BE0009037BD4680BD000080B5B0B000AF034641
:103BF0003960FB711346BB802023FB60294B1B6897
:103C0000C7F8BC3007F150031846FFF729FFBA8800
:103C100007F1500339681846FFF73CFF07F13002FF
:103C200007F1500311461846FFF744FF07F1500310
:103C30001846FFF725FF07F10C0207F11001FB7989
:103C40001846FDF735FCC7F8B800D7F8B830002B98
:103C500002D04FF0FF3320E0124B1B68C7F8BC3096
:103C60000123002B09D0FA6807F1100107F1300396
:103C70001846FFF76EFCC7F8BC000B4B1B68D7F863
:103C8000BC209A4207D1094A3B681360BB88084AA6
:103C90001360002301E04FF0FF331846C037BD46E4
:103CA00080BD00BF080400203C2500200004002047
:103CB0003825002080B590B002AFF860B9607A6016
:103CC000FB68002B05D0BB68002B02D07B68002B63
:103CD00001D1072337E0FB685B899BB2002B01D140
:103CE000032330E007F11C00012300935023BA683E
:103CF000F968FFF791F978637B6B002B01D07B6B40
:103D000021E007F1160207F1180107F11C0000235A
:103D1000FFF702FA78637B6B002B02D04FF0FF3382
:103D200011E0FB8A042B01D003230CE0B969FB8A64
:103D30007A68B868FCF746FE78637B6B002B01D08D
:103D4000012300E0002318463837BD4680BD00003F
:103D500090B5ADF56F7D06AF07F56874A4F5657491
:103D6000206007F56870A0F56670016007F568715E
:103D7000A1F567710A6007F56872A2F568721360B1
:103D80000023C7F89C33B54B1B68C7F898334FF036
:103D9000FF33C7F894330023C7F89033AF4B1B6849
:103DA000C7F88C336FF00043C7F87C33D7F87C2317
:103DB00007F56873A3F562731A6007F56873A3F5D6
:103DC000637300221A60A54B1B68C7F8883307F598
:103DD0006873A3F5687307F56872A2F5677207F553
:103DE0006871A1F5667107F56870A0F56570D7F880
:103DF000BC430494D7F8B843039407F11C0402941D
:103E0000D7F8B4430194D7F8B04300941B68126804
:103E100009680068FFF75CFEC7F89003D7F8903395
:103E2000002B40F0E681D7F8C033002B07D007F114
:103E30001C0320221946D7F8C00309F040FB07F500
:103E40006873A3F5687207F56873A3F5677107F5E2
:103E5000DE70002300934FF6FF7312680968FFF7C6
:103E6000DBF8C7F89003D7F89033002B40F0C381FC
:103E700007F56873A3F5F2735C6907F56873A3F53A
:103E800068731868FFF775FB03469C4204D94FF02E
:103E9000FF33C7F89033BDE107F55B7307F26E326D
:103EA00007F55C7107F5DE70FFF736F9C7F8900388
:103EB000D7F89033002BC0F2A081D7F89033002BB5
:103EC00000F37A81D7F8702307F5DE7311461846A0
:103ED000FFF798F90346002B29D1002387F8873391
:103EE0005F4BC7F880330FE0D7F880331A88B7F8F4
:103EF0006C339A4203D1012387F887330BE0D7F85C
:103F000080330233C7F88033D7F880331B884FF6ED
:103F1000FF729342E8D197F8873383F00103DBB255
:103F2000002B04D04D4B1B68C7F88C3372E1B7F8F7
:103F30006C33102B3BD1B7F86E33202B04D04FF0ED
:103F4000FF33C7F8903365E1D7F8701307F13C02EF
:103F500007F56873A3F5687020230068FCF732FD4D
:103F6000C7F89003D7F89033002B40F048813B4BC3
:103F70001B68C7F88C330123002B09D007F13C01E3
:103F800007F11C0320221846FFF7E3FAC7F88C0359
:103F9000344B1B68D7F88C239A4204D02F4B1B68F4
:103FA000C7F88C3336E10123C7F89C3374E7B7F8C0
:103FB0006C33022B2FD1B7F86E33B3F5CC7F04D915
:103FC0004FF0FF33C7F8903324E1D7F87013B7F8F8
:103FD0006E331C4607F5EA7207F56873A3F568703F
:103FE00023460068FCF7EEFCC7F89003D7F890333F
:103FF000002B40F0068107F56873A3F566731B6814
:10400000DBB2B7F86E2307F5EA711846FFF7ECFD4F
:10401000C7F8940340E7B7F86C33232B59D1D7F88E
:104020009433002B05DB104B1B68D7F894239A427E
:1040300004DB4FF0FF33C7F89433BCE0B7F86E33BE
:10404000B3F5C07F04D1B7F86E33B3F5C07F0DD997
:104050004FF0FF33C7F89033DCE000BF08040020C6
:10406000E4EB00003C25002000E30000D7F87013CB
:10407000B7F86E331C4607F13C0207F56873A3F5E9
:10408000687023460068FCF79DFCC7F89003D7F8DA
:104090009033002B40F0B780664B1B68C7F898330D
:1040A0000123002B10D0B7F86E331946D7F894339C
:1040B000DBB207F13C0207F11C0000930B46202104
:1040C00000F0F6FAC7F898034FF0FF33C7F89433BF
:1040D000E2E6B7F86C33502B7FF4DEAEB7F86E3300
:1040E000042B04D04FF0FF33C7F8903392E0D7F899
:1040F0007013B7F86E331C4607F1140207F56873A6
:10410000A3F5687023460068FCF75CFCC7F89003D1
:10411000D7F89033002B78D1464B1B68C7F88C3307
:104120000123002B0CD007F56873A3F566731B6899
:1041300007F1180211461846FCF72CFFC7F88C034C
:104140003D4B1B68D7F88C239A4204D0394B1B682F
:10415000C7F88C335EE007F56873A3F562731B68DC
:10416000C7F87433D7F874331A4607F56873A3F5A4
:1041700063731B689A428CBF01230023DBB2C7F82C
:104180007833D7F87833002B02D02A4B1B6801E034
:10419000294B1B68C7F88C33274B1B68D7F88C2337
:1041A0009A4204D0234B1B68C7F88C3332E0D7F80F
:1041B0008C33C7F888336FE600BFD7F89C33002BE9
:1041C0000CBF01230023DBB2C7F89033D7F890333C
:1041D000002B1CD1D7F89833C7F88C33164B1B68CB
:1041E000D7F888239A4214D04FF0FF33C7F89033A2
:1041F00010E000BF0EE000BF0CE000BF0AE000BF0F
:1042000008E000BF06E000BF04E000BF02E000BF1E
:1042100000E000BFD7F89033002B03D0054B1B689C
:10422000C7F88C33D7F88C33184607F56977BD4645
:1042300090BD00BF080400203C25002080B582B05E
:1042400000AF7860786802F0C3FE09220121786827
:1042500002F0D2FE00BF0837BD4680BD80B582B0F7
:1042600000AF7860786802F0ADFF00BF0837BD4648
:1042700080BD80B588B002AFF860B9607A6007F1A0
:10428000100230237968B86805F067FE78617B69B1
:10429000002B02D04FF0FF3359E0BB681A683B692E
:1042A00013447A689A4202D06FF001034FE0FB6832
:1042B00008331A467968B86805F078FE78617B693A
:1042C000002B0AD1FB6810331A467968B86805F0EC
:1042D0006DFE78617B69002B02D06FF0020336E03F
:1042E000FB680833184603F0F0F90246FB685A6091
:1042F000BB681B687A689A4202D06FF0030326E01D
:10430000FB6803F10801FB6810330193002300935D
:1043100000230022F86802F067FD78617B69002BBA
:1043200002D06FF0040312E0F86802F09BFE78619F
:104330007B69002B02D06FF0050308E0FB680833AF
:10434000184603F0C2F90246FB685A60002318467B
:104350001837BD4680BD80B582B000AF7860786800
:1043600002F074FE034618460837BD4680BD80B58E
:1043700084B000AFF860B9607A607A68B968F868AC
:1043800002F0AEFE034618461037BD4680BD80B52C
:1043900082B000AF7860786800F06AFB002178682E
:1043A00000F084FB034618460837BD4680BD80B444
:1043B00083B000AF7860002318460C37BD4680BC40
:1043C000704780B584B000AFF860B9607A607A68F1
:1043D000B968F86802F083FB034618461037BD46FB
:1043E00080BD80B582B000AF786039603968786888
:1043F00002F0ECFB034618460837BD4680BD80B589
:10440000A8B000AF786039600023FB6240F25F1310
:10441000C7F89C3042E007F130031846FFF7B7FFBA
:1044200007F13003202239681846FFF7CAFF07F169
:104430002C0107F1300304221846FFF7C2FF07F1F1
:104440000C0207F1300311461846FFF7CAFF97F830
:104450002F300133DBB287F82F302023C7F8983094
:10446000D7F89820D7F89C309A4203DDD7F89C30D3
:10447000C7F89830D7F8982007F10C0319467868E8
:1044800009F01DF8D7F898307A6813447B60D7F8A4
:104490009C20D7F89830D31AC7F89C30D7F89C30B6
:1044A000002BB8DC07F130031846FFF780FF00BF90
:1044B000A037BD4680BD000090B5ADF5617D00AF71
:1044C00007F56074A4F55D74206007F56070A0F5D1
:1044D0005E70016007F56071A1F55F710A6007F514
:1044E0006072A2F5607213606F4B1B68C7F8783377
:1044F000D7F89033B3F5C07F40F0C48007F5607300
:10450000A3F55F731B68202B40F0BE8007F5C872CF
:1045100007F56073A3F5607107F56073A3F55D732C
:1045200009681868FFF723FF0346002B40F0AE80B0
:1045300007F56073A3F5F87393F87F31BC2B40F057
:10454000A78007F5C87303F25F1207F13003114625
:104550001846FFF754FF0023C7F87C331FE007F528
:104560006073A3F55472D7F87C3313441A7807F5B7
:104570006073A3F5F871D7F87C330B441B78534074
:10458000D9B207F56073A3F55472D7F87C3313449E
:104590000A461A70D7F87C330133C7F87C33D7F852
:1045A0007C33B3F5AF7FDADD07F56073A3F55473A1
:1045B0001B7803F07F03DAB207F56073A3F5547339
:1045C0001A700023C7F87C330EE007F56073A3F57B
:1045D0005472D7F87C3313441B78002B5AD1D7F888
:1045E0007C330133C7F87C33D7F87C33B3F59F7F36
:1045F000EBDB07F56073A3F5547393F83E31012BA1
:104600004AD107F544731846FFF7C1FE07F5447316
:10461000082226491846FFF7D4FE07F56073A3F574
:104620005E7307F5447020221968FFF7CAFE07F190
:10463000300303F23F1107F5447320221846FFF7B9
:10464000C0FE07F1100207F5447311461846FFF744
:10465000C8FE07F544731846FFF7A9FE124B1B6806
:10466000C7F878330123002B0BD007F5C87303F28A
:104670005F1107F1100320221846FEF76AFFC7F802
:1046800078030AE000BF08E000BF06E000BF04E0D6
:1046900000BF02E000BF00E000BFD7F87833184643
:1046A00007F56177BD4690BD0804002000EC0000CE
:1046B00080B5A8B002AFF860B9607A603B60284B63
:1046C0001B68C7F8943007F114031846FFF7B6FDCE
:1046D00097F8A030234A52F833303B613A6997F893
:1046E000A0302049DB000B445B681B681344C7F80B
:1046F000903007F1100107F11403D7F89020184605
:10470000FFF7B7FDC7F88C00D7F88C30002B1BD112
:1047100007F114031846FFF71EFE02463B6893425A
:1047200012D10F4B1B68C7F894300123002B0AD01D
:1047300007F114003B6800937B68BA68F968FFF7DB
:10474000BBFEC7F8940000E000BF07F11403184651
:10475000FFF784FDD7F8943018469837BD4680BDE2
:10476000080400200004002001680E4A034691421C
:1047700015D1C169A2F11022A2F1EF1291420ED11E
:104780008268012A0BD8C26812B101698A4206D038
:10479000586928B19B691B1A58425841704701203B
:1047A000704700BF55AA00FF0D4B70B59E68A6B1BB
:1047B0003046FFF7D9FF044678B9F3686BB935691D
:1047C0000DB9204670BD2846FFF7CEFF28B9EB682B
:1047D000B34202D12E462D69F2E70124F1E700BF72
:1047E000002C00202DE9F843404E3468D4B1B46861
:1047F000C4B1002877D0002975D001FB00F5B5FBC6
:10480000F0F088426FD1281D6DD8A9070DD025F092
:1048100003070437F46803E06368BB4207D2A46966
:10482000002CF9D12046BDE8F8832F46F2E7A368B3
:104830001BB12F4B01201B689847D4E90520616804
:1048400004F12008C91B23291CD80123A360BAB195
:104850009061A36903B15A610023C4E90533336948
:10486000DA0706D5FFF7A0FF18B10120204B1B681F
:1048700098472A4600214046444608F09AFDD1E771
:10488000F060E6E707F1200C04EB0C0320395960D7
:104890000021DFF860E0C3E902142169196144F8DE
:1048A0000CE0DFF854C0C3F81CC001B1CB60C3E911
:1048B0000520B2B193619A6902B15361236100236B
:1048C0004FF00109C4E905333369C4E90179DB0715
:1048D000CFD5FFF769FF0028CBD0054B48461B68B2
:1048E000C6E7F360E7E700249CE700BF002C002048
:1048F0001404002055AA00FF669911EE2DE9F0413D
:10490000054600287CD03F4F3B68002B78D0BA6822
:10491000002A75D0834203D87A681344984203D39F
:10492000394B01201B689847A5F120042046FFF76A
:104930001BFF18B1344B01201B68984755F8183CF1
:10494000012B03D0304B01201B689847002355F8FA
:10495000146C45F8183CAEB1B26892B955F81C3CDD
:1049600003F1200273681344736055F8103C3361FF
:1049700003B1DE6020462022002108F01AFD234604
:1049800034461E462069002832D08368002B2FD180
:10499000636842682033134463600369D4E90521E6
:1049A0002361DAB901BB426981696261A161EAB13F
:1049B0009461A26902B1546103B1DC60202200213C
:1049C00008F0F7FC3B699B071AD5FFF7EDFEB8B17D
:1049D000BDE8F0410C4B01201B6818479161A169AB
:1049E0000029E0D04A61DEE7F960F8E7FC60E0E723
:1049F000002EE7D1FB68A36103B15C61FC60E1E7D5
:104A0000BDE8F081002C00201404002038B50D46CC
:104A1000142200210446124808F0CBFC1149124828
:104A200005F00CFB232D1AD914F003031FBF043D1E
:104A3000ED18C3F10403E4182A460021204608F0CB
:104A4000B8FC074B094AC3E900459C602260A2F10B
:104A50001022203DA2F1EF126560E261DC6038BDFA
:104A6000002C0020FD480000E547000055AA00FF8B
:104A700080B582B000AF786068220021786808F0C5
:104A800098FC00BF0837BD4680BD80B582B000AF3E
:104A900078607B68002B04D06821786805F0D8FA2C
:104AA00000E000BF0837BD4680BD000080B483B081
:104AB00000AF786039603B68002B02D06FF0730361
:104AC00021E07B6800221A647B6800225A643B68FC
:104AD000002B17D17B680E4A9A647B680D4ADA6412
:104AE0007B680D4A1A657B680C4A5A657B680C4ADC
:104AF0009A657B680B4ADA657B680B4A1A667B68A5
:104B00000A4A5A66002318460C37BD4680BC7047D7
:104B100067E6096A85AE67BB72F36E3C3AF54FA54E
:104B20007F520E518C68059BABD9831F19CDE05B7A
:104B300090B5D1B000AF07F5A073A3F59E731860D0
:104B400007F5A073A3F5A07319600023C7F83C31E3
:104B500017E007F5A073A3F59E731B68D7F83C21F7
:104B6000123253F8221007F5A073A3F59873D7F803
:104B70003C21423243F82210D7F83C310133C7F8C8
:104B80003C31D7F83C31072BE3D90023C7F83C313F
:104B900026E0D7F83C319B0007F5A072A2F5A07281
:104BA00012681344C7F8383107F10C030422D7F810
:104BB0003811184608F083FC07F5A073A3F59A7323
:104BC0001B6819BA07F5A073A3F59873D7F83C21B1
:104BD000023243F82210D7F83C310133C7F83C3198
:104BE000D7F83C310F2BD4D90023C7F83C3100F063
:104BF000D2BD07F5A073A3F59873D3F8242107F568
:104C0000A073A3F59873D3F818314FEAB31107F5E1
:104C1000A073A3F59873D3F818314FEAF3235940E2
:104C200007F5A073A3F59873D3F818314FEA7363AF
:104C30004B401A4407F5A073A3F59873D3F82011DD
:104C400007F5A073A3F59873D3F8180107F5A073BF
:104C5000A3F59873D3F81C4107F5A073A3F59873D7
:104C6000D3F82031634003404B401A44F549D7F84C
:104C70003C3151F823301A4407F5A073A3F598731B
:104C8000D7F83C11023153F821301A4407F5A073CC
:104C9000A3F598731A6007F5A073A3F59873D3F87A
:104CA00008314FEAB30207F5A073A3F59873D3F860
:104CB00008314FEA73335A4007F5A073A3F5987390
:104CC000D3F808314FEAB3535A4007F5A073A3F560
:104CD0009873D3F8081107F5A073A3F59873D3F868
:104CE0000C31194007F5A073A3F59873D3F81001A0
:104CF00007F5A073A3F59873D3F8084107F5A073DF
:104D0000A3F59873D3F80C31234303400B431A44A3
:104D100007F5A073A3F598735A6007F5A073A3F580
:104D20009873D3F8142107F5A073A3F598731B6843
:104D30001A4407F5A073A3F59873C3F8142107F577
:104D4000A073A3F598731A6807F5A073A3F5987379
:104D50005B681A4407F5A073A3F59873C3F8242180
:104D600007F5A073A3F59873D3F8202107F5A07376
:104D7000A3F59873D3F814314FEAB31107F5A07374
:104D8000A3F59873D3F814314FEAF323594007F58C
:104D9000A073A3F59873D3F814314FEA73634B40B3
:104DA0001A4407F5A073A3F59873D3F81C1107F5FF
:104DB000A073A3F59873D3F8140107F5A073A3F5B6
:104DC0009873D3F8184107F5A073A3F59873D3F837
:104DD0001C31634003404B401A44D7F83C31013347
:104DE000984951F823301A44D7F83C31591C07F53B
:104DF000A073A3F59873023153F821301A4407F5D4
:104E0000A073A3F598731A6007F5A073A3F59873C0
:104E1000D3F824314FEAB30207F5A073A3F59873D2
:104E2000D3F824314FEA73335A4007F5A073A3F542
:104E30009873D3F824314FEAB3535A4007F5A0735F
:104E4000A3F59873D3F8241107F5A073A3F598730D
:104E5000D3F80831194007F5A073A3F59873D3F878
:104E60000C0107F5A073A3F59873D3F8244107F557
:104E7000A073A3F59873D3F80831234303400B4381
:104E80001A4407F5A073A3F598735A6007F5A07349
:104E9000A3F59873D3F8102107F5A073A3F59873C1
:104EA0001B681A4407F5A073A3F59873C3F8102183
:104EB00007F5A073A3F598731A6807F5A073A3F517
:104EC00098735B681A4407F5A073A3F59873C3F849
:104ED000202107F5A073A3F59873D3F81C2107F5DB
:104EE000A073A3F59873D3F810314FEAB31107F507
:104EF000A073A3F59873D3F810314FEAF323594008
:104F000007F5A073A3F59873D3F810314FEA7363D4
:104F10004B401A4407F5A073A3F59873D3F8181102
:104F200007F5A073A3F59873D3F8100107F5A073E4
:104F3000A3F59873D3F8144107F5A073A3F59873FC
:104F4000D3F81831634003404B401A44D7F83C3142
:104F500002333C4951F823301A44D7F83C31991CAC
:104F600007F5A073A3F59873023153F821301A4462
:104F700007F5A073A3F598731A6007F5A073A3F55E
:104F80009873D3F820314FEAB30207F5A073A3F565
:104F90009873D3F820314FEA73335A4007F5A07362
:104FA000A3F59873D3F820314FEAB3535A4007F56D
:104FB000A073A3F59873D3F8201107F5A073A3F598
:104FC0009873D3F82431194007F5A073A3F59873AB
:104FD000D3F8080107F5A073A3F59873D3F820411F
:104FE00007F5A073A3F59873D3F824312343034046
:104FF0000B431A4407F5A073A3F598735A6007F59D
:10500000A073A3F59873D3F80C2107F5A073A3F54B
:1050100098731B681A4407F5A073A3F59873C3F837
:105020000C2107F5A073A3F598731A6807F5A07310
:10503000A3F598735B681A4407F5A073A3F59873FA
:1050400002E000BF08EC0000C3F81C2107F5A073C4
:10505000A3F59873D3F8182107F5A073A3F59873F7
:10506000D3F80C314FEAB31107F5A073A3F5987389
:10507000D3F80C314FEAF323594007F5A073A3F599
:105080009873D3F80C314FEA73634B401A4407F519
:10509000A073A3F59873D3F8141107F5A073A3F5C3
:1050A0009873D3F80C0107F5A073A3F59873D3F8A0
:1050B000104107F5A073A3F59873D3F8143163403A
:1050C00003404B401A44D7F83C310333F44951F8BC
:1050D00023301A44D7F83C31D91C07F5A073A3F547
:1050E0009873023153F821301A4407F5A073A3F5E1
:1050F00098731A6007F5A073A3F59873D3F81C3161
:105100004FEAB30207F5A073A3F59873D3F81C31E7
:105110004FEA73335A4007F5A073A3F59873D3F899
:105120001C314FEAB3535A4007F5A073A3F59873A7
:10513000D3F81C1107F5A073A3F59873D3F82031A9
:10514000194007F5A073A3F59873D3F8240107F568
:10515000A073A3F59873D3F81C4107F5A073A3F5CA
:105160009873D3F82031234303400B431A4407F5C7
:10517000A073A3F598735A6007F5A073A3F598730D
:10518000D3F8082107F5A073A3F598731B681A4498
:1051900007F5A073A3F59873C3F8082107F5A0736A
:1051A000A3F598731A6807F5A073A3F598735B6865
:1051B0001A4407F5A073A3F59873C3F8182107F5EF
:1051C000A073A3F59873D3F8142107F5A073A3F582
:1051D0009873D3F808314FEAB31107F5A073A3F51C
:1051E0009873D3F808314FEAF323594007F5A073B9
:1051F000A3F59873D3F808314FEA73634B401A4410
:1052000007F5A073A3F59873D3F8101107F5A073F1
:10521000A3F59873D3F8080107F5A073A3F5987365
:10522000D3F80C4107F5A073A3F59873D3F81031A8
:10523000634003404B401A44D7F83C31043398494B
:1052400051F823301A44D7F83C31191D07F5A073E3
:10525000A3F59873023153F821301A4407F5A0736F
:10526000A3F598731A6007F5A073A3F59873D3F8A4
:1052700018314FEAB30207F5A073A3F59873D3F87A
:1052800018314FEA73335A4007F5A073A3F59873AA
:10529000D3F818314FEAB3535A4007F5A073A3F57A
:1052A0009873D3F8181107F5A073A3F59873D3F882
:1052B0001C31194007F5A073A3F59873D3F82001AA
:1052C00007F5A073A3F59873D3F8184107F5A073F9
:1052D000A3F59873D3F81C31234303400B431A44BE
:1052E00007F5A073A3F598735A6007F5A073A3F5AB
:1052F0009873D3F8242107F5A073A3F598731B685E
:105300001A4407F5A073A3F59873C3F8242107F591
:10531000A073A3F598731A6807F5A073A3F59873A3
:105320005B681A4407F5A073A3F59873C3F81421BA
:1053300007F5A073A3F59873D3F8102107F5A073B0
:10534000A3F59873D3F824314FEAB31107F5A0738E
:10535000A3F59873D3F824314FEAF323594007F5A6
:10536000A073A3F59873D3F824314FEA73634B40CD
:105370001A4407F5A073A3F59873D3F80C1107F539
:10538000A073A3F59873D3F8240107F5A073A3F5D0
:105390009873D3F8084107F5A073A3F59873D3F871
:1053A0000C31634003404B401A44D7F83C3105337D
:1053B0003B4951F823301A44D7F83C31591D07F5C1
:1053C000A073A3F59873023153F821301A4407F5FE
:1053D000A073A3F598731A6007F5A073A3F59873EB
:1053E000D3F814314FEAB30207F5A073A3F598730D
:1053F000D3F814314FEA73335A4007F5A073A3F57D
:105400009873D3F814314FEAB3535A4007F5A07399
:10541000A3F59873D3F8141107F5A073A3F5987347
:10542000D3F81831194007F5A073A3F59873D3F892
:105430001C0107F5A073A3F59873D3F8144107F581
:10544000A073A3F59873D3F81831234303400B439B
:105450001A4407F5A073A3F598735A6007F5A07373
:10546000A3F59873D3F8202107F5A073A3F59873DB
:105470001B681A4407F5A073A3F59873C3F820219D
:1054800007F5A073A3F598731A6807F5A073A3F541
:1054900098735B681A4407F5A073A3F5987301E04D
:1054A00008EC0000C3F8102107F5A073A3F598736A
:1054B000D3F80C2107F5A073A3F59873D3F8203126
:1054C0004FEAB31107F5A073A3F59873D3F8203111
:1054D0004FEAF323594007F5A073A3F59873D3F867
:1054E00020314FEA73634B401A4407F5A073A3F5CC
:1054F0009873D3F8081107F5A073A3F59873D3F840
:10550000200107F5A073A3F59873D3F8244107F59C
:10551000A073A3F59873D3F80831634003404B4060
:105520001A44D7F83C310633A04951F823301A44C5
:10553000D7F83C31991D07F5A073A3F59873023194
:1055400053F821301A4407F5A073A3F598731A6035
:1055500007F5A073A3F59873D3F810314FEAB3029F
:1055600007F5A073A3F59873D3F810314FEA73339E
:105570005A4007F5A073A3F59873D3F810314FEA9A
:10558000B3535A4007F5A073A3F59873D3F81011DD
:1055900007F5A073A3F59873D3F81431194007F5F4
:1055A000A073A3F59873D3F8180107F5A073A3F5BA
:1055B0009873D3F8104107F5A073A3F59873D3F847
:1055C0001431234303400B431A4407F5A073A3F59A
:1055D00098735A6007F5A073A3F59873D3F81C214C
:1055E00007F5A073A3F598731B681A4407F5A07319
:1055F000A3F59873C3F81C2107F5A073A3F598735E
:105600001A6807F5A073A3F598735B681A4407F549
:10561000A073A3F59873C3F80C2107F5A073A3F545
:105620009873D3F8082107F5A073A3F59873D3F8FE
:105630001C314FEAB31107F5A073A3F59873D3F8A3
:105640001C314FEAF323594007F5A073A3F5987373
:10565000D3F81C314FEA73634B401A4407F5A0732B
:10566000A3F59873D3F8241107F5A073A3F59873E5
:10567000D3F81C0107F5A073A3F59873D3F8204164
:1056800007F5A073A3F59873D3F824316340034062
:105690004B401A44D7F83C310733444951F8233082
:1056A0001A44D7F83C31D91D07F5A073A3F59873B8
:1056B000023153F821301A4407F5A073A3F598730B
:1056C0001A6007F5A073A3F59873D3F80C314FEA6D
:1056D000B30207F5A073A3F59873D3F80C314FEA22
:1056E00073335A4007F5A073A3F59873D3F80C31C0
:1056F0004FEAB3535A4007F5A073A3F59873D3F854
:105700000C1107F5A073A3F59873D3F81031194065
:1057100007F5A073A3F59873D3F8140107F5A073E8
:10572000A3F59873D3F80C4107F5A073A3F598730C
:10573000D3F81031234303400B431A4407F5A073F9
:10574000A3F598735A6007F5A073A3F59873D3F87F
:10575000182107F5A073A3F598731B681A4407F581
:10576000A073A3F59873C3F8182107F5A073A3F5E8
:1057700098731A6807F5A073A3F598735B681A44C9
:1057800007F5A073A3F59873C3F80821D7F83C3147
:105790000833C7F83C31D7F83C310F2B7FF629AAE4
:1057A0001023C7F83C3101F039B900BF08EC000004
:1057B00007F5A073A3F59873D3F8242107F5A07318
:1057C000A3F59873D3F818314FEAB31107F5A07316
:1057D000A3F59873D3F818314FEAF323594007F52E
:1057E000A073A3F59873D3F818314FEA73634B4055
:1057F0001A4407F5A073A3F59873D3F8201107F5A1
:10580000A073A3F59873D3F8180107F5A073A3F557
:105810009873D3F81C4107F5A073A3F59873D3F8D8
:105820002031634003404B401A44F949D7F83C31DA
:1058300051F823301A44D7F83C31991E07F5A0736C
:10584000A3F59873023153F821304FEA7341D7F82A
:105850003C31981E07F5A073A3F59873023053F8F6
:1058600020304FEAF3435940D7F83C31981E07F5F2
:10587000A073A3F59873023053F820309B0A594067
:10588000D7F83C31D81F07F5A073A3F59873023001
:1058900053F820301944D7F83C31A3F10F0007F535
:1058A000A073A3F59873023053F820304FEAF31039
:1058B000D7F83C31A3F10F0407F5A073A3F5987353
:1058C000023453F824304FEAB3435840D7F83C3100
:1058D000A3F10F0407F5A073A3F59873023453F8EE
:1058E0002430DB0843401944D7F83C31A3F11000C1
:1058F00007F5A073A3F59873023053F82030C81849
:1059000007F5A073A3F59873D7F83C11023143F85B
:10591000210007F5A073A3F59873D7F83C11023165
:1059200053F821301A4407F5A073A3F598731A6051
:1059300007F5A073A3F59873D3F808314FEAB302C3
:1059400007F5A073A3F59873D3F808314FEA7333C2
:105950005A4007F5A073A3F59873D3F808314FEABE
:10596000B3535A4007F5A073A3F59873D3F8081101
:1059700007F5A073A3F59873D3F80C31194007F518
:10598000A073A3F59873D3F8100107F5A073A3F5DE
:105990009873D3F8084107F5A073A3F59873D3F86B
:1059A0000C31234303400B431A4407F5A073A3F5BE
:1059B00098735A6007F5A073A3F59873D3F8142170
:1059C00007F5A073A3F598731B681A4407F5A07335
:1059D000A3F59873C3F8142107F5A073A3F5987382
:1059E0001A6807F5A073A3F598735B681A4407F566
:1059F000A073A3F59873C3F8242107F5A073A3F54A
:105A00009873D3F8202107F5A073A3F59873D3F802
:105A100014314FEAB31107F5A073A3F59873D3F8C7
:105A200014314FEAF323594007F5A073A3F5987397
:105A3000D3F814314FEA73634B401A4407F5A0734F
:105A4000A3F59873D3F81C1107F5A073A3F5987309
:105A5000D3F8140107F5A073A3F59873D3F8184190
:105A600007F5A073A3F59873D3F81C316340034086
:105A70004B401A44D7F83C310133654951F8233083
:105A80001A44D7F83C31591E07F5A073A3F5987353
:105A9000023153F821304FEA7341D7F83C31581E98
:105AA00007F5A073A3F59873023053F820304FEA3E
:105AB000F3435940D7F83C31581E07F5A073A3F5BE
:105AC0009873023053F820309B0A5940D7F83C3184
:105AD000981F07F5A073A3F59873023053F8203090
:105AE0001944D7F83C31A3F10E0007F5A073A3F5D4
:105AF0009873023053F820304FEAF310D7F83C3156
:105B0000A3F10E0407F5A073A3F59873023453F8BC
:105B100024304FEAB3435840D7F83C31A3F10E0488
:105B200007F5A073A3F59873023453F82430DB080B
:105B30004340C818D7F83C31A3F10F0107F5A07313
:105B4000A3F59873023153F82110D7F83C31013393
:105B5000441807F5A071A1F59871981C41F82040F0
:105B600007F5A071A1F59871023351F823301A445A
:105B700007F5A073A3F598731A6007F5A073A3F552
:105B80009873D3F824314FEAB30207F5A073A3F555
:105B90009873D3F824314FEA73335A4007F5A07352
:105BA000A3F59873D3F824314FEAB3535A4007F55D
:105BB000A073A3F59873D3F8241107F5A073A3F588
:105BC0009873D3F80831194007F5A073A3F59873BB
:105BD000D3F80C0107F5A073A3F59873D3F824410B
:105BE00007F5A073A3F59873D3F808312343034056
:105BF0000B431A4407F5A073A3F598735A6007F591
:105C0000A073A3F59873D3F8102107F5A07301E0F2
:105C100008EC0000A3F598731B681A4407F5A073FD
:105C2000A3F59873C3F8102107F5A073A3F5987333
:105C30001A6807F5A073A3F598735B681A4407F513
:105C4000A073A3F59873C3F8202107F5A073A3F5FB
:105C50009873D3F81C2107F5A073A3F59873D3F8B4
:105C600010314FEAB31107F5A073A3F59873D3F879
:105C700010314FEAF323594007F5A073A3F5987349
:105C8000D3F810314FEA73634B401A4407F5A07301
:105C9000A3F59873D3F8181107F5A073A3F59873BB
:105CA000D3F8100107F5A073A3F59873D3F8144146
:105CB00007F5A073A3F59873D3F818316340034038
:105CC0004B401A44D7F83C310233F94951F823309C
:105CD0001A4407F5A073A3F59873D7F83C11023165
:105CE00053F821304FEA734107F5A073A3F5987379
:105CF000D7F83C01023053F820304FEAF3435940C3
:105D000007F5A073A3F59873D7F83C01023053F858
:105D100020309B0A5940D7F83C31581F07F5A07333
:105D2000A3F59873023053F820301944D7F83C316A
:105D3000A3F10D0007F5A073A3F59873023053F893
:105D400020304FEAF310D7F83C31A3F10D0407F5EA
:105D5000A073A3F59873023453F824304FEAB34389
:105D60005840D7F83C31A3F10D0407F5A073A3F513
:105D70009873023453F82430DB084340C818D7F82E
:105D80003C31A3F10E0107F5A073A3F5987302311E
:105D900053F82110D7F83C310233441807F5A071AD
:105DA000A1F59871981C41F8204007F5A071A1F564
:105DB0009871023351F823301A4407F5A073A3F504
:105DC00098731A6007F5A073A3F59873D3F8203180
:105DD0004FEAB30207F5A073A3F59873D3F8203107
:105DE0004FEA73335A4007F5A073A3F59873D3F8BD
:105DF00020314FEAB3535A4007F5A073A3F59873C7
:105E0000D3F8201107F5A073A3F59873D3F82431C4
:105E1000194007F5A073A3F59873D3F8080107F5A7
:105E2000A073A3F59873D3F8204107F5A073A3F5E9
:105E30009873D3F82431234303400B431A4407F5E6
:105E4000A073A3F598735A6007F5A073A3F5987330
:105E5000D3F80C2107F5A073A3F598731B681A44B7
:105E600007F5A073A3F59873C3F80C2107F5A07389
:105E7000A3F598731A6807F5A073A3F598735B6888
:105E80001A4407F5A073A3F59873C3F81C2107F50E
:105E9000A073A3F59873D3F8182107F5A073A3F5A1
:105EA0009873D3F80C314FEAB31107F5A073A3F53B
:105EB0009873D3F80C314FEAF323594007F5A073D8
:105EC000A3F59873D3F80C314FEA73634B401A442F
:105ED00007F5A073A3F59873D3F8141107F5A07311
:105EE000A3F59873D3F80C0107F5A073A3F5987385
:105EF000D3F8104107F5A073A3F59873D3F81431C4
:105F0000634003404B401A44D7F83C31033368499F
:105F100051F823301A44D7F83C31591C07F5A073C7
:105F2000A3F59873023153F821304FEA7341D7F843
:105F30003C31581C07F5A073A3F59873023053F851
:105F400020304FEAF3435940D7F83C31581C07F54D
:105F5000A073A3F59873023053F820309B0A594080
:105F6000D7F83C31181F07F5A073A3F598730230DA
:105F700053F820301944D7F83C31A3F10C0007F551
:105F8000A073A3F59873023053F820304FEAF31052
:105F9000D7F83C31A3F10C0407F5A073A3F598736F
:105FA000023453F824304FEAB3435840D7F83C3119
:105FB000A3F10C0407F5A073A3F59873023453F80A
:105FC0002430DB084340C818D7F83C31A3F10D0159
:105FD00007F5A073A3F59873023153F82110D7F891
:105FE0003C310333441807F5A071A1F59871981C52
:105FF00041F8204007F5A071A1F59871023351F8DE
:1060000023301A4407F5A073A3F598731A6007F5B7
:10601000A073A3F59873D3F81C314FEAB30207F5C8
:10602000A073A3F59873D3F81C314FEA73335A4029
:1060300007F5A073A3F59873D3F81C314FEAB35357
:106040005A4007F5A073A3F59873D3F81C1107F510
:10605000A073A3F59873D3F82031194007F5A07306
:10606000A3F59873D3F8240107F5A073A3F59873EB
:10607000D3F81C4107F5A073A3F59873D3F820312A
:10608000234303400B431A4407F5A073A3F5987309
:106090005A6007F5A073A3F59873D3F8082107F5A4
:1060A000A073A3F598731B681A4407F5A07301E069
:1060B00008EC0000A3F59873C3F8082107F5A07356
:1060C000A3F598731A6807F5A073A3F598735B6836
:1060D0001A4407F5A073A3F59873C3F8182107F5C0
:1060E000A073A3F59873D3F8142107F5A073A3F553
:1060F0009873D3F808314FEAB31107F5A073A3F5ED
:106100009873D3F808314FEAF323594007F5A07389
:10611000A3F59873D3F808314FEA73634B401A44E0
:1061200007F5A073A3F59873D3F8101107F5A073C2
:10613000A3F59873D3F8080107F5A073A3F5987336
:10614000D3F80C4107F5A073A3F59873D3F8103179
:10615000634003404B401A44D7F83C310433F949BB
:1061600051F823301A44D7F83C31991C07F5A07335
:10617000A3F59873023153F821304FEA7341D7F8F1
:106180003C31981C07F5A073A3F59873023053F8BF
:1061900020304FEAF3435940D7F83C31981C07F5BB
:1061A000A073A3F59873023053F820309B0A59402E
:1061B000D7F83C31D81E07F5A073A3F598730230C9
:1061C00053F820301944D7F83C31A3F10B0007F500
:1061D000A073A3F59873023053F820304FEAF31000
:1061E000D7F83C31A3F10B0407F5A073A3F598731E
:1061F000023453F824304FEAB3435840D7F83C31C7
:10620000A3F10B0407F5A073A3F59873023453F8B8
:106210002430DB084340C818D7F83C31A3F10C0107
